:100000000C947B020C9498020C9498020C94E002DD
:100010000C94E8020C94BD030C9498020C94980282
:100020000C9498020C9498020C9405040C94980279
:100030000C9498020C9498020C9498020C949802D8
:100040000C9498020C9498020C9498020C949802C8
:100050000C9498020C94F9040C9498020C94980255
:100060000C9498020C94980200002000A00000005C
:1000700060004000800000000000A00020000000A0
:100080006000800040000000FF050301060402FF3D
:1000900003060205010400000048022002080C00CB
:1000A0000440082000000000082004400C00020862
:1000B000022000480000000000200010AA0A0008EA
:1000C00066065505920400048E033303E802AA0273
:1000D0007602490222020002E101C701AF01990143
:1000E000860174016401550147013B012F01240180
:1000F0001A01110108010001F800F000EA00E30014
:10010000DD00D700D200CC00C700C300BE00BA009B
:10011000B600B200AE00AA00A700A300A0009D0098
:100120009A009700940092008F008D008A0088004A
:1001300086008400820080007E007C007A007800C7
:10014000760075007300710070006E006D006B002A
:100150006A00690067006600650063006200610074
:1001600060005F005E005D005C005B005A005900AB
:1001700058005700560055005400530052005100DB
:10018000510050004F004E004E004D004C004B00FF
:100190004B004A004900490048004700470046001C
:1001A0004600450044004400430043004200420032
:1001B00041004100400040003F003F003E003E0043
:1001C0003D003D003C003C003B003B003A003A0053
:1001D0003A0039003900380038003800370037005D
:1001E0003600360036003500350035003400340066
:1001F000340033003300330032003200320031006B
:100200003100310031003000300030002F002F006D
:100210002F002F002E002E002E002E002D002D006E
:100220002D002D002C002C002C002C002B002B006E
:100230002B002B002A002A002A002A002A0029006D
:10024000290029002900280028002800280028006B
:100250002700270027002700270027002600260068
:100260002600260026002500250025002500250063
:10027000250024002400240024002400240023005E
:100280002300230023002300230023002200220058
:100290002200220022002200210021002100210052
:1002A000210021002100210020002000200020004A
:1002B0002000200020000000DD0800E11100E51909
:1002C00000E82100EC2A00EF3200F13A00F442008D
:1002D000F64A00F85200FA5A00FC6200FD6900FE7E
:1002E0007100FE7800FF8000FF8700FF8E00FE9502
:1002F00000FE9B00FDA200FCA800FAAE00F8B400CE
:10030000F6BA00F4C000F1C500EFCA00ECCF00E877
:10031000D400E5D900E1DD00DDE100D9E500D4E855
:1003200000CFEC00CAEF00C5F100C0F400BAF6003F
:10033000B4F800AEFA00A8FC00A2FD009BFE0095F8
:10034000FE008EFF0087FF007FFF0078FE0071FE39
:100350000069FD0062FC005AFA0052F8004AF600FB
:1003600042F4003AF10032EF002AEC0021E80019D3
:10037000E50011E10008DD0000E10800E51100E8FA
:100380001900EC2100EF2A00F13200F43A00F642A5
:1003900000F84A00FA5200FC5A00FD6200FE6900B3
:1003A000FE7100FF7800FF7F00FF8700FE8E00FED9
:1003B0009500FD9B00FCA200FAA800F8AE00F6B480
:1003C00000F4BA00F1C000EFC500ECCA00E8CF00AD
:1003D000E5D400E1D900DDDD00D9E100D4E500CFAE
:1003E000E800CAEC00C5EF00C0F100BAF400B4F6B2
:1003F00000AEF800A8FA00A2FC009BFD0095FE00EC
:100400008EFE0087FF0080FF0078FF0071FE00690C
:10041000FE0062FD005AFC0052FA004AF80042F663
:10042000003AF40032F1002AEF0021EC0019E80054
:1004300011E50008E10000DD0000E10800E5110021
:10044000E81900EC2100EF2A00F13200F43A00F63E
:100450004200F84A00FA5200FC5A00FD6200FE69B0
:1004600000FE7100FF7800FF8000FF8700FE8E0015
:10047000FE9500FD9B00FCA200FAA800F8AE00F675
:10048000B400F4BA00F1C000EFC500ECCA00E8CF38
:1004900000E5D400E1D900DDDD00D9E100D4E500BC
:1004A000CFE800CAEC00C5EF00C0F100BAF400B418
:1004B000F600AEF800A8FA00A2FC009BFD0095FE35
:1004C000008EFE0087FF0080FF0078FF0071FE00B5
:1004D00069FE0062FD005AFC0052FA004AF8004230
:1004E000F6003AF40032F1002AEF0021EC0019E89E
:1004F0000011E50008E111241FBECFEFD8E0DEBFF8
:10050000CDBF11E0A0E0B1E0E0EFFAE002C005905D
:100510000D92A230B107D9F721E0A2E0B1E001C00D
:100520001D92A730B207E1F70E941A050C947605D8
:100530000C94000080E286BBB59BFECF08954A9BD9
:1005400002C0F49A0895F498089584B18E6084B935
:100550008AB188668AB9089584B1817F84B98AB1E5
:1005600087798AB90895CF93DF93882319F0C6E974
:10057000D0E002C0C6EAD0E0C60FD11DC60FD11D23
:100580000E94AC0294B1FE018591892B84B99AB185
:100590008491892B8AB9DF91CF910895DB01FA010B
:1005A000853010F41C920AC08B3F20F087EF8C93AB
:1005B0008FEF04C09CEF980F9C938C5F808308950D
:1005C0001F920F920FB60F9211240E94AC02FFCF20
:1005D0001F920F920FB60F9211242F933F934F93B8
:1005E0005F936F937F938F939F93AF93BF93CF93BB
:1005F000EF93FF93C6B1C7708EB384FB442740F9D5
:1006000050E0282F26952695237030E04217530797
:1006100059F4837049F4809104018F5F8093040141
:10062000823028F0F19A03C0F198109204019EB331
:10063000969591708EB38295869583708130F1F096
:100640009923E1F00E94AC0281EB84BD92EB909380
:1006500080008093B0001092B3001092880017BC05
:100660008FEF8093B40080938A0088BD0E949A0225
:100670008EB38F7980628EBB0E94A5028EB3829565
:1006800086958370813099F4EC2FF0E0EE0FFF1F18
:10069000F49903C0E858FF4F02C0E859FF4F859115
:1006A0009591880DC12CD82E805E782E0BC08EB30C
:1006B00082958695837031F48EB36C2F829581700C
:1006C0000E94B3028FEF8C0F8C2311F05F9801C052
:1006D0005F9AE0910001E73008F0E0E02E2F30E073
:1006E000C90181579F4FFC0184918C1303C08EB3C5
:1006F000837F0DC0F901E857FF4F84918C1304C02C
:100700008EB3837F846003C08EB38D7F8C608EBB7D
:100710008EB38695869583709EB39295917089135A
:1007200002C05C9801C05C9AC0930001B5016F3FA4
:10073000710509F040F4660F771FFB01EA54FF4F83
:100740006591759104C080E090E20E9462057B0192
:10075000A12CB12CF098FF91EF91CF91BF91AF9167
:100760009F918F917F916F915F914F913F912F91C9
:100770000F900FBE0F901F9018951F920F920FB6FB
:100780000F9211242F933F934F935F936F937F9317
:100790008F939F93AF93BF93EF93FF930E949F021A
:1007A000F198F0980E94AC0281EA84BD92EA90939D
:1007B00080008093B0001092B300109289001092D4
:1007C000880017BC8FEF8093B4002FEF30E0309398
:1007D0008B0020938A0088BD0E949A028EB38F7985
:1007E00080648EBB0E94A502FF91EF91BF91AF91F3
:1007F0009F918F917F916F915F914F913F912F9139
:100800000F900FBE0F901F9018951F920F920FB66A
:100810000F9211244F925F920F931F932F933F9348
:100820004F935F936F937F938F939F93AF93BF93F8
:10083000EF93FF93CF93DF9300D0CDB7DEB78EB3A6
:10084000829586958370813009F063C0CE0CDF1CE1
:100850008D2D90E0803C910520F020ECD21A80E4B0
:10086000780E8D2D90E0472D50E04817590710F471
:10087000C12CD72C8D2D90E0FC01EE0FFF1FE80F4F
:10088000F91FAF014A545D4FCA01FA010196259143
:100890004E5F5F4FF49904C04490FA01049104C084
:1008A000FC010491FA014490929EC0011124949C91
:1008B00020011124909E80011124AE014F5F5F4FF3
:1008C000BE016E5F7F4F892F0E94CE028A8187BD55
:1008D000898188BDAE014F5F5F4FBE016E5F7F4F64
:1008E000852D0E94CE028A81809388008981809321
:1008F0008A00AE014F5F5F4FBE016E5F7F4F812F59
:100900000E94CE028A818093B30089818093B400D3
:1009100018C08EB382958695837099F4F3E09F9EFC
:10092000C00111248F3F910511F00CF08FEF8093DF
:10093000B4008093B30080938A008093880088BDC0
:1009400087BD20E7A21627E1B20620F48FEFA81A90
:10095000B80A28C0F09AF1988EB382958695837074
:1009600009F10E94AC0281EA84BD92EA9093800072
:100970008093B0001092B4001092B30010928A00DD
:100980001092880018BC17BC0E949A028EB38F790F
:100990008EBB0E94A50266B18EB36770829581708E
:1009A0000E94B3028091030191E0980F909303019C
:1009B000963930F091E090930201855980930301BC
:1009C0000F900F90DF91CF91FF91EF91BF91AF9179
:1009D0009F918F917F916F915F914F913F912F9157
:1009E0001F910F915F904F900F900FBE0F901F902F
:1009F00018951F920F920FB60F9211248F9380912A
:100A00007C00833E41F0843E69F4809179008093BC
:100A1000050183EE05C0809179008093060184EE84
:100A200080937C0081E085BB8F910F900FBE0F906B
:100A30001F90189580E98AB95A9A81E084BD92E0A6
:100A4000909380008093B0002FEF30E030938700C8
:100A50002093860016BC22E030E03093850020937E
:100A6000840094E09093B20085BD21E12093810041
:100A70008093B10080E280936B0087E080936C00EC
:100A800090936D008093680083EE80937C008AEFE2
:100A900080937A0090937B00812C83B18CE68EBB8F
:100AA0000E949F0280916F00806280936F00789413
:100AB000809102018823E1F380910601982E109223
:100AC0000201F6CFAA1BBB1B51E107C0AA1FBB1F27
:100AD000A617B70710F0A61BB70B881F991F5A95CA
:100AE000A9F780959095BC01CD010895F894FFCFAA
:020AF000FF0005
:00000001FF
